{
  "contractName": "Store",
  "abi": [
    {
      "inputs": [
        {
          "internalType": "string",
          "name": "_id",
          "type": "string"
        },
        {
          "internalType": "string",
          "name": "_businessName",
          "type": "string"
        },
        {
          "internalType": "string",
          "name": "_businessBranch",
          "type": "string"
        },
        {
          "internalType": "string",
          "name": "_ownerName",
          "type": "string"
        },
        {
          "internalType": "string",
          "name": "_cedula",
          "type": "string"
        },
        {
          "internalType": "string",
          "name": "_businessPermit",
          "type": "string"
        },
        {
          "internalType": "string",
          "name": "_brgyClearance",
          "type": "string"
        },
        {
          "internalType": "string",
          "name": "_sanitaryPermit",
          "type": "string"
        },
        {
          "internalType": "string",
          "name": "_mayorsPermit",
          "type": "string"
        }
      ],
      "name": "storeData",
      "outputs": [],
      "stateMutability": "nonpayable",
      "type": "function"
    },
    {
      "inputs": [
        {
          "internalType": "address",
          "name": "user",
          "type": "address"
        }
      ],
      "name": "getData",
      "outputs": [
        {
          "internalType": "string",
          "name": "",
          "type": "string"
        },
        {
          "internalType": "string",
          "name": "",
          "type": "string"
        },
        {
          "internalType": "string",
          "name": "",
          "type": "string"
        },
        {
          "internalType": "string",
          "name": "",
          "type": "string"
        },
        {
          "internalType": "string",
          "name": "",
          "type": "string"
        },
        {
          "internalType": "string",
          "name": "",
          "type": "string"
        },
        {
          "internalType": "string",
          "name": "",
          "type": "string"
        },
        {
          "internalType": "string",
          "name": "",
          "type": "string"
        },
        {
          "internalType": "string",
          "name": "",
          "type": "string"
        },
        {
          "internalType": "uint256",
          "name": "",
          "type": "uint256"
        }
      ],
      "stateMutability": "view",
      "type": "function",
      "constant": true
    }
  ],
  "bytecode": "0x608060405234801561001057600080fd5b50610e21806100206000396000f3fe608060405234801561001057600080fd5b50600436106100365760003560e01c806338266b221461003b57806358ef412b14610074575b600080fd5b610055600480360381019061005091906108d6565b610090565b60405161006b9a999897969594939291906109b5565b60405180910390f35b61008e60048036038101906100899190610bc5565b610618565b005b60608060608060608060608060606000806000808d73ffffffffffffffffffffffffffffffffffffffff1673ffffffffffffffffffffffffffffffffffffffff1681526020019081526020016000209050806000018160010182600201836003018460040185600501866006018760070188600801896009015489805461011690610dba565b80601f016020809104026020016040519081016040528092919081815260200182805461014290610dba565b801561018f5780601f106101645761010080835404028352916020019161018f565b820191906000526020600020905b81548152906001019060200180831161017257829003601f168201915b505050505099508880546101a290610dba565b80601f01602080910402602001604051908101604052809291908181526020018280546101ce90610dba565b801561021b5780601f106101f05761010080835404028352916020019161021b565b820191906000526020600020905b8154815290600101906020018083116101fe57829003601f168201915b5050505050985087805461022e90610dba565b80601f016020809104026020016040519081016040528092919081815260200182805461025a90610dba565b80156102a75780601f1061027c576101008083540402835291602001916102a7565b820191906000526020600020905b81548152906001019060200180831161028a57829003601f168201915b505050505097508680546102ba90610dba565b80601f01602080910402602001604051908101604052809291908181526020018280546102e690610dba565b80156103335780601f1061030857610100808354040283529160200191610333565b820191906000526020600020905b81548152906001019060200180831161031657829003601f168201915b5050505050965085805461034690610dba565b80601f016020809104026020016040519081016040528092919081815260200182805461037290610dba565b80156103bf5780601f10610394576101008083540402835291602001916103bf565b820191906000526020600020905b8154815290600101906020018083116103a257829003601f168201915b505050505095508480546103d290610dba565b80601f01602080910402602001604051908101604052809291908181526020018280546103fe90610dba565b801561044b5780601f106104205761010080835404028352916020019161044b565b820191906000526020600020905b81548152906001019060200180831161042e57829003601f168201915b5050505050945083805461045e90610dba565b80601f016020809104026020016040519081016040528092919081815260200182805461048a90610dba565b80156104d75780601f106104ac576101008083540402835291602001916104d7565b820191906000526020600020905b8154815290600101906020018083116104ba57829003601f168201915b505050505093508280546104ea90610dba565b80601f016020809104026020016040519081016040528092919081815260200182805461051690610dba565b80156105635780601f1061053857610100808354040283529160200191610563565b820191906000526020600020905b81548152906001019060200180831161054657829003601f168201915b5050505050925081805461057690610dba565b80601f01602080910402602001604051908101604052809291908181526020018280546105a290610dba565b80156105ef5780601f106105c4576101008083540402835291602001916105ef565b820191906000526020600020905b8154815290600101906020018083116105d257829003601f168201915b505050505091509a509a509a509a509a509a509a509a509a509a50509193959799509193959799565b60006040518061014001604052808b81526020018a8152602001898152602001888152602001878152602001868152602001858152602001848152602001838152602001428152509050806000803373ffffffffffffffffffffffffffffffffffffffff1673ffffffffffffffffffffffffffffffffffffffff16815260200190815260200160002060008201518160000190805190602001906106bd9291906107c1565b5060208201518160010190805190602001906106da9291906107c1565b5060408201518160020190805190602001906106f79291906107c1565b5060608201518160030190805190602001906107149291906107c1565b5060808201518160040190805190602001906107319291906107c1565b5060a082015181600501908051906020019061074e9291906107c1565b5060c082015181600601908051906020019061076b9291906107c1565b5060e08201518160070190805190602001906107889291906107c1565b506101008201518160080190805190602001906107a69291906107c1565b50610120820151816009015590505050505050505050505050565b8280546107cd90610dba565b90600052602060002090601f0160209004810192826107ef5760008555610836565b82601f1061080857805160ff1916838001178555610836565b82800160010185558215610836579182015b8281111561083557825182559160200191906001019061081a565b5b5090506108439190610847565b5090565b5b80821115610860576000816000905550600101610848565b5090565b6000604051905090565b600080fd5b600080fd5b600073ffffffffffffffffffffffffffffffffffffffff82169050919050565b60006108a382610878565b9050919050565b6108b381610898565b81146108be57600080fd5b50565b6000813590506108d0816108aa565b92915050565b6000602082840312156108ec576108eb61086e565b5b60006108fa848285016108c1565b91505092915050565b600081519050919050565b600082825260208201905092915050565b60005b8381101561093d578082015181840152602081019050610922565b8381111561094c576000848401525b50505050565b6000601f19601f8301169050919050565b600061096e82610903565b610978818561090e565b935061098881856020860161091f565b61099181610952565b840191505092915050565b6000819050919050565b6109af8161099c565b82525050565b60006101408201905081810360008301526109d0818d610963565b905081810360208301526109e4818c610963565b905081810360408301526109f8818b610963565b90508181036060830152610a0c818a610963565b90508181036080830152610a208189610963565b905081810360a0830152610a348188610963565b905081810360c0830152610a488187610963565b905081810360e0830152610a5c8186610963565b9050818103610100830152610a718185610963565b9050610a816101208301846109a6565b9b9a5050505050505050505050565b600080fd5b600080fd5b7f4e487b7100000000000000000000000000000000000000000000000000000000600052604160045260246000fd5b610ad282610952565b810181811067ffffffffffffffff82111715610af157610af0610a9a565b5b80604052505050565b6000610b04610864565b9050610b108282610ac9565b919050565b600067ffffffffffffffff821115610b3057610b2f610a9a565b5b610b3982610952565b9050602081019050919050565b82818337600083830152505050565b6000610b68610b6384610b15565b610afa565b905082815260208101848484011115610b8457610b83610a95565b5b610b8f848285610b46565b509392505050565b600082601f830112610bac57610bab610a90565b5b8135610bbc848260208601610b55565b91505092915050565b60008060008060008060008060006101208a8c031215610be857610be761086e565b5b60008a013567ffffffffffffffff811115610c0657610c05610873565b5b610c128c828d01610b97565b99505060208a013567ffffffffffffffff811115610c3357610c32610873565b5b610c3f8c828d01610b97565b98505060408a013567ffffffffffffffff811115610c6057610c5f610873565b5b610c6c8c828d01610b97565b97505060608a013567ffffffffffffffff811115610c8d57610c8c610873565b5b610c998c828d01610b97565b96505060808a013567ffffffffffffffff811115610cba57610cb9610873565b5b610cc68c828d01610b97565b95505060a08a013567ffffffffffffffff811115610ce757610ce6610873565b5b610cf38c828d01610b97565b94505060c08a013567ffffffffffffffff811115610d1457610d13610873565b5b610d208c828d01610b97565b93505060e08a013567ffffffffffffffff811115610d4157610d40610873565b5b610d4d8c828d01610b97565b9250506101008a013567ffffffffffffffff811115610d6f57610d6e610873565b5b610d7b8c828d01610b97565b9150509295985092959850929598565b7f4e487b7100000000000000000000000000000000000000000000000000000000600052602260045260246000fd5b60006002820490506001821680610dd257607f821691505b602082108103610de557610de4610d8b565b5b5091905056fea2646970667358221220ce46cd4c7f5d1cf4e21706586c7ca500e2740dc4984fc1dcd71a1ef3cdac93bb64736f6c634300080d0033",
  "immutableReferences": {},
  "source": "// SPDX-License-Identifier: MIT\r\npragma solidity >=0.4.25 <0.9.0;\r\n\r\ncontract Store {\r\n    struct Data {\r\n        string id; // ID assigned by admin\r\n        string businessName;\r\n        string businessBranch;\r\n        string ownerName;\r\n        string cedula;\r\n        string businessPermit;\r\n        string brgyClearance;\r\n        string sanitaryPermit;\r\n        string mayorsPermit;\r\n        uint256 timestamp;\r\n    }\r\n\r\n    mapping(address => Data) private userToData;\r\n\r\n    // Function to store data\r\n    function storeData(\r\n        string memory _id,\r\n        string memory _businessName,\r\n        string memory _businessBranch,\r\n        string memory _ownerName,\r\n        string memory _cedula,\r\n        string memory _businessPermit,\r\n        string memory _brgyClearance,\r\n        string memory _sanitaryPermit,\r\n        string memory _mayorsPermit\r\n    ) public {\r\n        Data memory newData = Data({\r\n            id: _id,\r\n            businessName: _businessName,\r\n            businessBranch: _businessBranch,\r\n            ownerName: _ownerName,\r\n            cedula: _cedula,\r\n            businessPermit: _businessPermit,\r\n            brgyClearance: _brgyClearance,\r\n            sanitaryPermit: _sanitaryPermit,\r\n            mayorsPermit: _mayorsPermit,\r\n            timestamp: block.timestamp\r\n        });\r\n\r\n        userToData[msg.sender] = newData;\r\n    }\r\n\r\n    // Function to retrieve data\r\n    function getData(address user) external view returns (\r\n        string memory,\r\n        string memory,\r\n        string memory,\r\n        string memory,\r\n        string memory,\r\n        string memory,\r\n        string memory,\r\n        string memory,\r\n        string memory,\r\n        uint256\r\n    ) {\r\n        Data storage userData = userToData[user];\r\n\r\n        return (\r\n            userData.id,\r\n            userData.businessName,\r\n            userData.businessBranch,\r\n            userData.ownerName,\r\n            userData.cedula,\r\n            userData.businessPermit,\r\n            userData.brgyClearance,\r\n            userData.sanitaryPermit,\r\n            userData.mayorsPermit,\r\n            userData.timestamp\r\n        );\r\n    }\r\n}\r\n",
  "sourcePath": "C:\\xampp\\htdocs\\buds\\CEIPO\\contracts\\Store.sol",
  "compiler": {
    "name": "solc",
    "version": "0.8.13+commit.abaa5c0e.Emscripten.clang"
  },
  "schemaVersion": "3.4.15",
  "updatedAt": "2023-10-14T06:03:16.718Z",
  "networkType": "ethereum",
  "devdoc": {
    "kind": "dev",
    "methods": {},
    "version": 1
  },
  "userdoc": {
    "kind": "user",
    "methods": {},
    "version": 1
  }
}